{
  "_format": "hh-sol-artifact-1",
  "contractName": "Vault",
  "sourceName": "contracts/Vault.sol",
  "abi": [
    {
      "inputs": [
        {
          "internalType": "address",
          "name": "_stakingToken",
          "type": "address"
        },
        {
          "internalType": "address",
          "name": "_rewardsToken",
          "type": "address"
        }
      ],
      "stateMutability": "nonpayable",
      "type": "constructor"
    },
    {
      "inputs": [
        {
          "internalType": "address",
          "name": "owner",
          "type": "address"
        }
      ],
      "name": "OwnableInvalidOwner",
      "type": "error"
    },
    {
      "inputs": [
        {
          "internalType": "address",
          "name": "account",
          "type": "address"
        }
      ],
      "name": "OwnableUnauthorizedAccount",
      "type": "error"
    },
    {
      "inputs": [],
      "name": "ReentrancyGuardReentrantCall",
      "type": "error"
    },
    {
      "inputs": [
        {
          "internalType": "address",
          "name": "token",
          "type": "address"
        }
      ],
      "name": "SafeERC20FailedOperation",
      "type": "error"
    },
    {
      "anonymous": false,
      "inputs": [
        {
          "indexed": false,
          "internalType": "uint256",
          "name": "newMinimum",
          "type": "uint256"
        }
      ],
      "name": "MinimumStakeUpdated",
      "type": "event"
    },
    {
      "anonymous": false,
      "inputs": [
        {
          "indexed": true,
          "internalType": "address",
          "name": "previousOwner",
          "type": "address"
        },
        {
          "indexed": true,
          "internalType": "address",
          "name": "newOwner",
          "type": "address"
        }
      ],
      "name": "OwnershipTransferred",
      "type": "event"
    },
    {
      "anonymous": false,
      "inputs": [
        {
          "indexed": true,
          "internalType": "address",
          "name": "user",
          "type": "address"
        },
        {
          "indexed": false,
          "internalType": "uint256",
          "name": "amount",
          "type": "uint256"
        },
        {
          "indexed": false,
          "internalType": "uint256",
          "name": "stakeId",
          "type": "uint256"
        }
      ],
      "name": "RewardsClaimed",
      "type": "event"
    },
    {
      "anonymous": false,
      "inputs": [
        {
          "indexed": false,
          "internalType": "bool",
          "name": "isPaused",
          "type": "bool"
        }
      ],
      "name": "RewardsPaused",
      "type": "event"
    },
    {
      "anonymous": false,
      "inputs": [
        {
          "indexed": true,
          "internalType": "address",
          "name": "user",
          "type": "address"
        },
        {
          "indexed": false,
          "internalType": "uint256",
          "name": "amount",
          "type": "uint256"
        },
        {
          "indexed": false,
          "internalType": "uint256",
          "name": "lockPeriodInDays",
          "type": "uint256"
        },
        {
          "indexed": false,
          "internalType": "uint256",
          "name": "stakeId",
          "type": "uint256"
        }
      ],
      "name": "Staked",
      "type": "event"
    },
    {
      "anonymous": false,
      "inputs": [
        {
          "indexed": false,
          "internalType": "uint256",
          "name": "id",
          "type": "uint256"
        },
        {
          "indexed": false,
          "internalType": "string",
          "name": "name",
          "type": "string"
        },
        {
          "indexed": false,
          "internalType": "uint256",
          "name": "lockPeriodInDays",
          "type": "uint256"
        },
        {
          "indexed": false,
          "internalType": "uint256",
          "name": "rewardRate",
          "type": "uint256"
        }
      ],
      "name": "StakingOptionAdded",
      "type": "event"
    },
    {
      "anonymous": false,
      "inputs": [
        {
          "indexed": false,
          "internalType": "uint256",
          "name": "id",
          "type": "uint256"
        }
      ],
      "name": "StakingOptionDeactivated",
      "type": "event"
    },
    {
      "anonymous": false,
      "inputs": [
        {
          "indexed": false,
          "internalType": "uint256",
          "name": "id",
          "type": "uint256"
        },
        {
          "indexed": false,
          "internalType": "string",
          "name": "name",
          "type": "string"
        },
        {
          "indexed": false,
          "internalType": "uint256",
          "name": "lockPeriodInDays",
          "type": "uint256"
        },
        {
          "indexed": false,
          "internalType": "uint256",
          "name": "rewardRate",
          "type": "uint256"
        }
      ],
      "name": "StakingOptionUpdated",
      "type": "event"
    },
    {
      "anonymous": false,
      "inputs": [
        {
          "indexed": true,
          "internalType": "address",
          "name": "user",
          "type": "address"
        },
        {
          "indexed": false,
          "internalType": "uint256",
          "name": "amount",
          "type": "uint256"
        },
        {
          "indexed": false,
          "internalType": "uint256",
          "name": "stakeId",
          "type": "uint256"
        }
      ],
      "name": "Unstaked",
      "type": "event"
    },
    {
      "inputs": [
        {
          "internalType": "uint256",
          "name": "_amount",
          "type": "uint256"
        }
      ],
      "name": "addRewards",
      "outputs": [],
      "stateMutability": "nonpayable",
      "type": "function"
    },
    {
      "inputs": [
        {
          "internalType": "string",
          "name": "_name",
          "type": "string"
        },
        {
          "internalType": "uint256",
          "name": "_lockPeriodInDays",
          "type": "uint256"
        },
        {
          "internalType": "uint256",
          "name": "_rewardRate",
          "type": "uint256"
        }
      ],
      "name": "addStakingOption",
      "outputs": [],
      "stateMutability": "nonpayable",
      "type": "function"
    },
    {
      "inputs": [
        {
          "internalType": "address",
          "name": "_user",
          "type": "address"
        },
        {
          "internalType": "uint256",
          "name": "_stakeId",
          "type": "uint256"
        }
      ],
      "name": "calculateRewards",
      "outputs": [
        {
          "internalType": "uint256",
          "name": "",
          "type": "uint256"
        }
      ],
      "stateMutability": "view",
      "type": "function"
    },
    {
      "inputs": [],
      "name": "checkAndUpdateRewardStatus",
      "outputs": [],
      "stateMutability": "nonpayable",
      "type": "function"
    },
    {
      "inputs": [
        {
          "internalType": "uint256",
          "name": "_stakeId",
          "type": "uint256"
        }
      ],
      "name": "claimRewards",
      "outputs": [],
      "stateMutability": "nonpayable",
      "type": "function"
    },
    {
      "inputs": [
        {
          "internalType": "uint256",
          "name": "_optionId",
          "type": "uint256"
        }
      ],
      "name": "deactivateStakingOption",
      "outputs": [],
      "stateMutability": "nonpayable",
      "type": "function"
    },
    {
      "inputs": [
        {
          "internalType": "uint256",
          "name": "_optionId",
          "type": "uint256"
        }
      ],
      "name": "getAPY",
      "outputs": [
        {
          "internalType": "uint256",
          "name": "",
          "type": "uint256"
        }
      ],
      "stateMutability": "view",
      "type": "function"
    },
    {
      "inputs": [],
      "name": "getStakingOptions",
      "outputs": [
        {
          "components": [
            {
              "internalType": "uint256",
              "name": "id",
              "type": "uint256"
            },
            {
              "internalType": "string",
              "name": "name",
              "type": "string"
            },
            {
              "internalType": "uint256",
              "name": "lockPeriodInDays",
              "type": "uint256"
            },
            {
              "internalType": "uint256",
              "name": "rewardRate",
              "type": "uint256"
            },
            {
              "internalType": "bool",
              "name": "active",
              "type": "bool"
            }
          ],
          "internalType": "struct Vault.StakingOption[]",
          "name": "",
          "type": "tuple[]"
        }
      ],
      "stateMutability": "view",
      "type": "function"
    },
    {
      "inputs": [
        {
          "internalType": "address",
          "name": "_user",
          "type": "address"
        }
      ],
      "name": "getUserStakes",
      "outputs": [
        {
          "components": [
            {
              "internalType": "uint256",
              "name": "amount",
              "type": "uint256"
            },
            {
              "internalType": "uint256",
              "name": "startTime",
              "type": "uint256"
            },
            {
              "internalType": "uint256",
              "name": "lockPeriodInDays",
              "type": "uint256"
            },
            {
              "internalType": "uint256",
              "name": "lockEndTime",
              "type": "uint256"
            },
            {
              "internalType": "uint256",
              "name": "rewardRate",
              "type": "uint256"
            },
            {
              "internalType": "uint256",
              "name": "lastClaimTime",
              "type": "uint256"
            },
            {
              "internalType": "bool",
              "name": "active",
              "type": "bool"
            }
          ],
          "internalType": "struct Vault.Stake[]",
          "name": "",
          "type": "tuple[]"
        }
      ],
      "stateMutability": "view",
      "type": "function"
    },
    {
      "inputs": [],
      "name": "minimumStake",
      "outputs": [
        {
          "internalType": "uint256",
          "name": "",
          "type": "uint256"
        }
      ],
      "stateMutability": "view",
      "type": "function"
    },
    {
      "inputs": [],
      "name": "owner",
      "outputs": [
        {
          "internalType": "address",
          "name": "",
          "type": "address"
        }
      ],
      "stateMutability": "view",
      "type": "function"
    },
    {
      "inputs": [
        {
          "internalType": "address",
          "name": "_token",
          "type": "address"
        }
      ],
      "name": "recoverToken",
      "outputs": [],
      "stateMutability": "nonpayable",
      "type": "function"
    },
    {
      "inputs": [],
      "name": "renounceOwnership",
      "outputs": [],
      "stateMutability": "nonpayable",
      "type": "function"
    },
    {
      "inputs": [],
      "name": "rewardsPaused",
      "outputs": [
        {
          "internalType": "bool",
          "name": "",
          "type": "bool"
        }
      ],
      "stateMutability": "view",
      "type": "function"
    },
    {
      "inputs": [],
      "name": "rewardsToken",
      "outputs": [
        {
          "internalType": "contract IERC20",
          "name": "",
          "type": "address"
        }
      ],
      "stateMutability": "view",
      "type": "function"
    },
    {
      "inputs": [
        {
          "internalType": "uint256",
          "name": "_newMinimum",
          "type": "uint256"
        }
      ],
      "name": "setMinimumStake",
      "outputs": [],
      "stateMutability": "nonpayable",
      "type": "function"
    },
    {
      "inputs": [
        {
          "internalType": "uint256",
          "name": "_amount",
          "type": "uint256"
        },
        {
          "internalType": "uint256",
          "name": "_optionId",
          "type": "uint256"
        }
      ],
      "name": "stake",
      "outputs": [],
      "stateMutability": "nonpayable",
      "type": "function"
    },
    {
      "inputs": [
        {
          "internalType": "uint256",
          "name": "",
          "type": "uint256"
        }
      ],
      "name": "stakingOptions",
      "outputs": [
        {
          "internalType": "uint256",
          "name": "id",
          "type": "uint256"
        },
        {
          "internalType": "string",
          "name": "name",
          "type": "string"
        },
        {
          "internalType": "uint256",
          "name": "lockPeriodInDays",
          "type": "uint256"
        },
        {
          "internalType": "uint256",
          "name": "rewardRate",
          "type": "uint256"
        },
        {
          "internalType": "bool",
          "name": "active",
          "type": "bool"
        }
      ],
      "stateMutability": "view",
      "type": "function"
    },
    {
      "inputs": [],
      "name": "stakingToken",
      "outputs": [
        {
          "internalType": "contract IERC20",
          "name": "",
          "type": "address"
        }
      ],
      "stateMutability": "view",
      "type": "function"
    },
    {
      "inputs": [],
      "name": "totalStaked",
      "outputs": [
        {
          "internalType": "uint256",
          "name": "",
          "type": "uint256"
        }
      ],
      "stateMutability": "view",
      "type": "function"
    },
    {
      "inputs": [
        {
          "internalType": "address",
          "name": "newOwner",
          "type": "address"
        }
      ],
      "name": "transferOwnership",
      "outputs": [],
      "stateMutability": "nonpayable",
      "type": "function"
    },
    {
      "inputs": [
        {
          "internalType": "uint256",
          "name": "_stakeId",
          "type": "uint256"
        }
      ],
      "name": "unstake",
      "outputs": [],
      "stateMutability": "nonpayable",
      "type": "function"
    },
    {
      "inputs": [
        {
          "internalType": "uint256",
          "name": "_optionId",
          "type": "uint256"
        },
        {
          "internalType": "string",
          "name": "_name",
          "type": "string"
        },
        {
          "internalType": "uint256",
          "name": "_lockPeriodInDays",
          "type": "uint256"
        },
        {
          "internalType": "uint256",
          "name": "_rewardRate",
          "type": "uint256"
        }
      ],
      "name": "updateStakingOption",
      "outputs": [],
      "stateMutability": "nonpayable",
      "type": "function"
    },
    {
      "inputs": [
        {
          "internalType": "address",
          "name": "",
          "type": "address"
        },
        {
          "internalType": "uint256",
          "name": "",
          "type": "uint256"
        }
      ],
      "name": "userStakes",
      "outputs": [
        {
          "internalType": "uint256",
          "name": "amount",
          "type": "uint256"
        },
        {
          "internalType": "uint256",
          "name": "startTime",
          "type": "uint256"
        },
        {
          "internalType": "uint256",
          "name": "lockPeriodInDays",
          "type": "uint256"
        },
        {
          "internalType": "uint256",
          "name": "lockEndTime",
          "type": "uint256"
        },
        {
          "internalType": "uint256",
          "name": "rewardRate",
          "type": "uint256"
        },
        {
          "internalType": "uint256",
          "name": "lastClaimTime",
          "type": "uint256"
        },
        {
          "internalType": "bool",
          "name": "active",
          "type": "bool"
        }
      ],
      "stateMutability": "view",
      "type": "function"
    }
  ],
  "bytecode": "0x608060405234801561001057600080fd5b50604051613e5f380380613e5f833981810160405281019061003291906104a2565b33600073ffffffffffffffffffffffffffffffffffffffff168173ffffffffffffffffffffffffffffffffffffffff16036100a55760006040517f1e4fbdf700000000000000000000000000000000000000000000000000000000815260040161009c91906104f1565b60405180910390fd5b6100b48161028360201b60201c565b506001808190555081600260006101000a81548173ffffffffffffffffffffffffffffffffffffffff021916908373ffffffffffffffffffffffffffffffffffffffff16021790555080600360006101000a81548173ffffffffffffffffffffffffffffffffffffffff021916908373ffffffffffffffffffffffffffffffffffffffff160217905550670de0b6b3a76400006007819055506101986040518060400160405280600881526020017f466c657869626c65000000000000000000000000000000000000000000000000815250600063d09dc30061034760201b60201c565b6101e46040518060400160405280600c81526020017f33302044617973204c6f636b0000000000000000000000000000000000000000815250601e640147d3570061034760201b60201c565b6102306040518060400160405280600c81526020017f36302044617973204c6f636b0000000000000000000000000000000000000000815250603c6401e8c2120061034760201b60201c565b61027c6040518060400160405280600c81526020017f39302044617973204c6f636b0000000000000000000000000000000000000000815250605a6402cb41780061034760201b60201c565b505061090e565b60008060009054906101000a900473ffffffffffffffffffffffffffffffffffffffff169050816000806101000a81548173ffffffffffffffffffffffffffffffffffffffff021916908373ffffffffffffffffffffffffffffffffffffffff1602179055508173ffffffffffffffffffffffffffffffffffffffff168173ffffffffffffffffffffffffffffffffffffffff167f8be0079c531659141344cd1fd0a4f28419497f9722a3daafe3b4186f6b6457e060405160405180910390a35050565b6000600580549050905060056040518060a001604052808381526020018681526020018581526020018481526020016001151581525090806001815401808255809150506001900390600052602060002090600502016000909190919091506000820151816000015560208201518160010190816103c5919061075c565b50604082015181600201556060820151816003015560808201518160040160006101000a81548160ff02191690831515021790555050507f4a0e58f74fc8e26cf81fc46228c45b0a7edf3ba161573887bfd928e11b90975e8185858560405161043194939291906108c2565b60405180910390a150505050565b600080fd5b600073ffffffffffffffffffffffffffffffffffffffff82169050919050565b600061046f82610444565b9050919050565b61047f81610464565b811461048a57600080fd5b50565b60008151905061049c81610476565b92915050565b600080604083850312156104b9576104b861043f565b5b60006104c78582860161048d565b92505060206104d88582860161048d565b9150509250929050565b6104eb81610464565b82525050565b600060208201905061050660008301846104e2565b92915050565b600081519050919050565b7f4e487b7100000000000000000000000000000000000000000000000000000000600052604160045260246000fd5b7f4e487b7100000000000000000000000000000000000000000000000000000000600052602260045260246000fd5b6000600282049050600182168061058d57607f821691505b6020821081036105a05761059f610546565b5b50919050565b60008190508160005260206000209050919050565b60006020601f8301049050919050565b600082821b905092915050565b6000600883026106087fffffffffffffffffffffffffffffffffffffffffffffffffffffffffffffffff826105cb565b61061286836105cb565b95508019841693508086168417925050509392505050565b6000819050919050565b6000819050919050565b600061065961065461064f8461062a565b610634565b61062a565b9050919050565b6000819050919050565b6106738361063e565b61068761067f82610660565b8484546105d8565b825550505050565b600090565b61069c61068f565b6106a781848461066a565b505050565b5b818110156106cb576106c0600082610694565b6001810190506106ad565b5050565b601f821115610710576106e1816105a6565b6106ea846105bb565b810160208510156106f9578190505b61070d610705856105bb565b8301826106ac565b50505b505050565b600082821c905092915050565b600061073360001984600802610715565b1980831691505092915050565b600061074c8383610722565b9150826002028217905092915050565b6107658261050c565b67ffffffffffffffff81111561077e5761077d610517565b5b6107888254610575565b6107938282856106cf565b600060209050601f8311600181146107c657600084156107b4578287015190505b6107be8582610740565b865550610826565b601f1984166107d4866105a6565b60005b828110156107fc578489015182556001820191506020850194506020810190506107d7565b868310156108195784890151610815601f891682610722565b8355505b6001600288020188555050505b505050505050565b6108378161062a565b82525050565b600082825260208201905092915050565b60005b8381101561086c578082015181840152602081019050610851565b60008484015250505050565b6000601f19601f8301169050919050565b60006108948261050c565b61089e818561083d565b93506108ae81856020860161084e565b6108b781610878565b840191505092915050565b60006080820190506108d7600083018761082e565b81810360208301526108e98186610889565b90506108f8604083018561082e565b610905606083018461082e565b95945050505050565b6135428061091d6000396000f3fe608060405234801561001057600080fd5b50600436106101585760003560e01c8063842e2981116100c3578063beceed391161007c578063beceed3914610393578063d1af0c7d146103af578063ec5ffac2146103cd578063eeee849b146103eb578063efc661e41461041b578063f2fde38b1461043957610158565b8063842e2981146102a75780638da5cb5b146102d75780639be65a60146102f5578063b14ccee714610311578063b5d5b5fa1461032d578063beb8314c1461036357610158565b8063715018a611610115578063715018a61461021f57806372b016451461022957806372f702f31461023357806376b4691b146102515780637b0472f01461026d578063817b1cd21461028957610158565b806308315e741461015d5780630962ef7914610179578063233e9903146101955780632e17de78146101b1578063339a0551146101cd57806338864cac146101eb575b600080fd5b6101776004803603810190610172919061238d565b610455565b005b610193600480360381019061018e9190612410565b610532565b005b6101af60048036038101906101aa9190612410565b6107cb565b005b6101cb60048036038101906101c69190612410565b610814565b005b6101d5610bc0565b6040516101e29190612458565b60405180910390f35b61020560048036038101906102009190612410565b610bd3565b604051610216959493929190612501565b60405180910390f35b610227610cae565b005b610231610cc2565b005b61023b610dd3565b60405161024891906125da565b60405180910390f35b61026b60048036038101906102669190612410565b610df9565b005b610287600480360381019061028291906125f5565b610f32565b005b610291611381565b60405161029e9190612635565b60405180910390f35b6102c160048036038101906102bc919061268e565b611387565b6040516102ce9190612816565b60405180910390f35b6102df61147c565b6040516102ec9190612847565b60405180910390f35b61030f600480360381019061030a919061268e565b6114a5565b005b61032b60048036038101906103269190612862565b6116ae565b005b610347600480360381019061034291906128d1565b6116c6565b60405161035a9796959493929190612911565b60405180910390f35b61037d600480360381019061037891906128d1565b611732565b60405161038a9190612635565b60405180910390f35b6103ad60048036038101906103a89190612410565b61190b565b005b6103b7611a6d565b6040516103c491906125da565b60405180910390f35b6103d5611a93565b6040516103e29190612635565b60405180910390f35b61040560048036038101906104009190612410565b611a99565b6040516104129190612635565b60405180910390f35b610423611c10565b6040516104309190612b02565b60405180910390f35b610453600480360381019061044e919061268e565b611d3a565b005b61045d611dc0565b60058054905084106104a4576040517f08c379a000000000000000000000000000000000000000000000000000000000815260040161049b90612b70565b60405180910390fd5b6000600585815481106104ba576104b9612b90565b5b90600052602060002090600502019050838160010190816104db9190612dc1565b508281600201819055508181600301819055507f2d8b8cd6eb9a2ea786042e108ea26e878a81fbeb33d29f3bfa19f99ba31b4e81858585856040516105239493929190612e93565b60405180910390a15050505050565b61053a611e47565b6000600460003373ffffffffffffffffffffffffffffffffffffffff1673ffffffffffffffffffffffffffffffffffffffff1681526020019081526020016000209050808054905082106105c3576040517f08c379a00000000000000000000000000000000000000000000000000000000081526004016105ba90612f2b565b60405180910390fd5b60008183815481106105d8576105d7612b90565b5b9060005260206000209060070201905060006105f43385611732565b905060008111610639576040517f08c379a000000000000000000000000000000000000000000000000000000000815260040161063090612f97565b60405180910390fd5b80600360009054906101000a900473ffffffffffffffffffffffffffffffffffffffff1673ffffffffffffffffffffffffffffffffffffffff166370a08231306040518263ffffffff1660e01b81526004016106959190612847565b602060405180830381865afa1580156106b2573d6000803e3d6000fd5b505050506040513d601f19601f820116820180604052508101906106d69190612fcc565b1015610717576040517f08c379a000000000000000000000000000000000000000000000000000000000815260040161070e90613045565b60405180910390fd5b42826005018190555061076d3382600360009054906101000a900473ffffffffffffffffffffffffffffffffffffffff1673ffffffffffffffffffffffffffffffffffffffff16611e8d9092919063ffffffff16565b3373ffffffffffffffffffffffffffffffffffffffff167fdacbdde355ba930696a362ea6738feb9f8bd52dfb3d81947558fd3217e23e32582866040516107b5929190613065565b60405180910390a25050506107c8611f0c565b50565b6107d3611dc0565b806007819055507ff4045d7dd317de89564c3f12c35961242ed2a4dce3ae4e7a75847ffa04bb0834816040516108099190612635565b60405180910390a150565b61081c611e47565b6000600460003373ffffffffffffffffffffffffffffffffffffffff1673ffffffffffffffffffffffffffffffffffffffff1681526020019081526020016000209050808054905082106108a5576040517f08c379a000000000000000000000000000000000000000000000000000000000815260040161089c90612f2b565b60405180910390fd5b60008183815481106108ba576108b9612b90565b5b906000526020600020906007020190508060060160009054906101000a900460ff1661091b576040517f08c379a0000000000000000000000000000000000000000000000000000000008152600401610912906130da565b60405180910390fd5b60008160030154111561097057806003015442101561096f576040517f08c379a000000000000000000000000000000000000000000000000000000000815260040161096690613146565b60405180910390fd5b5b600061097c3385611732565b905060008260000154905060008360060160006101000a81548160ff02191690831515021790555080600660008282546109b69190613195565b92505081905550610a0a3382600260009054906101000a900473ffffffffffffffffffffffffffffffffffffffff1673ffffffffffffffffffffffffffffffffffffffff16611e8d9092919063ffffffff16565b3373ffffffffffffffffffffffffffffffffffffffff167f7fc4727e062e336010f2c282598ef5f14facb3de68cf8195c2f23e1454b2b74e8287604051610a52929190613065565b60405180910390a2600082118015610b05575081600360009054906101000a900473ffffffffffffffffffffffffffffffffffffffff1673ffffffffffffffffffffffffffffffffffffffff166370a08231306040518263ffffffff1660e01b8152600401610ac19190612847565b602060405180830381865afa158015610ade573d6000803e3d6000fd5b505050506040513d601f19601f82011682018060405250810190610b029190612fcc565b10155b15610bb157428360050181905550610b603383600360009054906101000a900473ffffffffffffffffffffffffffffffffffffffff1673ffffffffffffffffffffffffffffffffffffffff16611e8d9092919063ffffffff16565b3373ffffffffffffffffffffffffffffffffffffffff167fdacbdde355ba930696a362ea6738feb9f8bd52dfb3d81947558fd3217e23e3258387604051610ba8929190613065565b60405180910390a25b50505050610bbd611f0c565b50565b600860009054906101000a900460ff1681565b60058181548110610be357600080fd5b9060005260206000209060050201600091509050806000015490806001018054610c0c90612bee565b80601f0160208091040260200160405190810160405280929190818152602001828054610c3890612bee565b8015610c855780601f10610c5a57610100808354040283529160200191610c85565b820191906000526020600020905b815481529060010190602001808311610c6857829003601f168201915b5050505050908060020154908060030154908060040160009054906101000a900460ff16905085565b610cb6611dc0565b610cc06000611f15565b565b600080600360009054906101000a900473ffffffffffffffffffffffffffffffffffffffff1673ffffffffffffffffffffffffffffffffffffffff166370a08231306040518263ffffffff1660e01b8152600401610d209190612847565b602060405180830381865afa158015610d3d573d6000803e3d6000fd5b505050506040513d601f19601f82011682018060405250810190610d619190612fcc565b149050801515600860009054906101000a900460ff16151514610dd05780600860006101000a81548160ff0219169083151502179055507fc83daa8e88094783a4c60aee3f0412f1c1fc10df822b51521b10a9737860949781604051610dc79190612458565b60405180910390a15b50565b600260009054906101000a900473ffffffffffffffffffffffffffffffffffffffff1681565b610e01611dc0565b6005805490508110610e48576040517f08c379a0000000000000000000000000000000000000000000000000000000008152600401610e3f90612b70565b60405180910390fd5b60058181548110610e5c57610e5b612b90565b5b906000526020600020906005020160040160009054906101000a900460ff16610eba576040517f08c379a0000000000000000000000000000000000000000000000000000000008152600401610eb190613215565b60405180910390fd5b600060058281548110610ed057610ecf612b90565b5b906000526020600020906005020160040160006101000a81548160ff0219169083151502179055507f1d0d4a7f83ffa66b4a95f176bf32d15861de0d5edcaf818932fb08a504a38b5d81604051610f279190612635565b60405180910390a150565b610f3a611e47565b600754821015610f7f576040517f08c379a0000000000000000000000000000000000000000000000000000000008152600401610f7690613281565b60405180910390fd5b6005805490508110610fc6576040517f08c379a0000000000000000000000000000000000000000000000000000000008152600401610fbd90612b70565b60405180910390fd5b60058181548110610fda57610fd9612b90565b5b906000526020600020906005020160040160009054906101000a900460ff16611038576040517f08c379a000000000000000000000000000000000000000000000000000000000815260040161102f906132ed565b60405180910390fd5b60006005828154811061104e5761104d612b90565b5b90600052602060002090600502016040518060a00160405290816000820154815260200160018201805461108190612bee565b80601f01602080910402602001604051908101604052809291908181526020018280546110ad90612bee565b80156110fa5780601f106110cf576101008083540402835291602001916110fa565b820191906000526020600020905b8154815290600101906020018083116110dd57829003601f168201915b5050505050815260200160028201548152602001600382015481526020016004820160009054906101000a900460ff1615151515815250509050611183333085600260009054906101000a900473ffffffffffffffffffffffffffffffffffffffff1673ffffffffffffffffffffffffffffffffffffffff16611fd9909392919063ffffffff16565b600080826040015111156111b2576201518082604001516111a4919061330d565b426111af919061334f565b90505b600460003373ffffffffffffffffffffffffffffffffffffffff1673ffffffffffffffffffffffffffffffffffffffff1681526020019081526020016000206040518060e001604052808681526020014281526020018460400151815260200183815260200184606001518152602001428152602001600115158152509080600181540180825580915050600190039060005260206000209060070201600090919091909150600082015181600001556020820151816001015560408201518160020155606082015181600301556080820151816004015560a0820151816005015560c08201518160060160006101000a81548160ff021916908315150217905550505083600660008282546112c8919061334f565b925050819055503373ffffffffffffffffffffffffffffffffffffffff167fb4caaf29adda3eefee3ad552a8e85058589bf834c7466cae4ee58787f70589ed8584604001516001600460003373ffffffffffffffffffffffffffffffffffffffff1673ffffffffffffffffffffffffffffffffffffffff1681526020019081526020016000208054905061135c9190613195565b60405161136b93929190613383565b60405180910390a2505061137d611f0c565b5050565b60065481565b6060600460008373ffffffffffffffffffffffffffffffffffffffff1673ffffffffffffffffffffffffffffffffffffffff168152602001908152602001600020805480602002602001604051908101604052809291908181526020016000905b8282101561147157838290600052602060002090600702016040518060e00160405290816000820154815260200160018201548152602001600282015481526020016003820154815260200160048201548152602001600582015481526020016006820160009054906101000a900460ff161515151581525050815260200190600101906113e8565b505050509050919050565b60008060009054906101000a900473ffffffffffffffffffffffffffffffffffffffff16905090565b6114ad611dc0565b600260009054906101000a900473ffffffffffffffffffffffffffffffffffffffff1673ffffffffffffffffffffffffffffffffffffffff168173ffffffffffffffffffffffffffffffffffffffff1614158061150c57506000600654145b61154b576040517f08c379a00000000000000000000000000000000000000000000000000000000081526004016115429061342c565b60405180910390fd5b600081905060008173ffffffffffffffffffffffffffffffffffffffff166370a08231306040518263ffffffff1660e01b815260040161158b9190612847565b602060405180830381865afa1580156115a8573d6000803e3d6000fd5b505050506040513d601f19601f820116820180604052508101906115cc9190612fcc565b9050600360009054906101000a900473ffffffffffffffffffffffffffffffffffffffff1673ffffffffffffffffffffffffffffffffffffffff168373ffffffffffffffffffffffffffffffffffffffff1603611677576001600860006101000a81548160ff0219169083151502179055507fc83daa8e88094783a4c60aee3f0412f1c1fc10df822b51521b10a97378609497600160405161166e9190612458565b60405180910390a15b6116a961168261147c565b828473ffffffffffffffffffffffffffffffffffffffff16611e8d9092919063ffffffff16565b505050565b6116b6611dc0565b6116c183838361205b565b505050565b600460205281600052604060002081815481106116e257600080fd5b9060005260206000209060070201600091509150508060000154908060010154908060020154908060030154908060040154908060050154908060060160009054906101000a900460ff16905087565b600080600460008573ffffffffffffffffffffffffffffffffffffffff1673ffffffffffffffffffffffffffffffffffffffff168152602001908152602001600020805480602002602001604051908101604052809291908181526020016000905b8282101561181d57838290600052602060002090600702016040518060e00160405290816000820154815260200160018201548152602001600282015481526020016003820154815260200160048201548152602001600582015481526020016006820160009054906101000a900460ff16151515158152505081526020019060010190611794565b50505050905080518310611835576000915050611905565b600081848151811061184a57611849612b90565b5b602002602001015190508060c0015115801561186e575080602001518160a0015110155b1561187e57600092505050611905565b600860009054906101000a900460ff161561189e57600092505050611905565b60008160a00151426118b09190613195565b9050600081036118c65760009350505050611905565b60006801b5a660ea44b8000082846080015185600001516118e7919061330d565b6118f1919061330d565b6118fb919061347b565b9050809450505050505b92915050565b61195a333083600360009054906101000a900473ffffffffffffffffffffffffffffffffffffffff1673ffffffffffffffffffffffffffffffffffffffff16611fd9909392919063ffffffff16565b600860009054906101000a900460ff168015611a1157506000600360009054906101000a900473ffffffffffffffffffffffffffffffffffffffff1673ffffffffffffffffffffffffffffffffffffffff166370a08231306040518263ffffffff1660e01b81526004016119ce9190612847565b602060405180830381865afa1580156119eb573d6000803e3d6000fd5b505050506040513d601f19601f82011682018060405250810190611a0f9190612fcc565b115b15611a6a576000600860006101000a81548160ff0219169083151502179055507fc83daa8e88094783a4c60aee3f0412f1c1fc10df822b51521b10a973786094976000604051611a619190612458565b60405180910390a15b50565b600360009054906101000a900473ffffffffffffffffffffffffffffffffffffffff1681565b60075481565b60006005805490508210611ae2576040517f08c379a0000000000000000000000000000000000000000000000000000000008152600401611ad990612b70565b60405180910390fd5b600060058381548110611af857611af7612b90565b5b90600052602060002090600502016040518060a001604052908160008201548152602001600182018054611b2b90612bee565b80601f0160208091040260200160405190810160405280929190818152602001828054611b5790612bee565b8015611ba45780601f10611b7957610100808354040283529160200191611ba4565b820191906000526020600020905b815481529060010190602001808311611b8757829003601f168201915b5050505050815260200160028201548152602001600382015481526020016004820160009054906101000a900460ff161515151581525050905060006402540be4006301e133808360600151611bfa919061330d565b611c04919061347b565b90508092505050919050565b60606005805480602002602001604051908101604052809291908181526020016000905b82821015611d3157838290600052602060002090600502016040518060a001604052908160008201548152602001600182018054611c7190612bee565b80601f0160208091040260200160405190810160405280929190818152602001828054611c9d90612bee565b8015611cea5780601f10611cbf57610100808354040283529160200191611cea565b820191906000526020600020905b815481529060010190602001808311611ccd57829003601f168201915b5050505050815260200160028201548152602001600382015481526020016004820160009054906101000a900460ff16151515158152505081526020019060010190611c34565b50505050905090565b611d42611dc0565b600073ffffffffffffffffffffffffffffffffffffffff168173ffffffffffffffffffffffffffffffffffffffff1603611db45760006040517f1e4fbdf7000000000000000000000000000000000000000000000000000000008152600401611dab9190612847565b60405180910390fd5b611dbd81611f15565b50565b611dc8612153565b73ffffffffffffffffffffffffffffffffffffffff16611de661147c565b73ffffffffffffffffffffffffffffffffffffffff1614611e4557611e09612153565b6040517f118cdaa7000000000000000000000000000000000000000000000000000000008152600401611e3c9190612847565b60405180910390fd5b565b600260015403611e83576040517f3ee5aeb500000000000000000000000000000000000000000000000000000000815260040160405180910390fd5b6002600181905550565b611f07838473ffffffffffffffffffffffffffffffffffffffff1663a9059cbb8585604051602401611ec09291906134ac565b604051602081830303815290604052915060e01b6020820180517bffffffffffffffffffffffffffffffffffffffffffffffffffffffff838183161783525050505061215b565b505050565b60018081905550565b60008060009054906101000a900473ffffffffffffffffffffffffffffffffffffffff169050816000806101000a81548173ffffffffffffffffffffffffffffffffffffffff021916908373ffffffffffffffffffffffffffffffffffffffff1602179055508173ffffffffffffffffffffffffffffffffffffffff168173ffffffffffffffffffffffffffffffffffffffff167f8be0079c531659141344cd1fd0a4f28419497f9722a3daafe3b4186f6b6457e060405160405180910390a35050565b612055848573ffffffffffffffffffffffffffffffffffffffff166323b872dd86868660405160240161200e939291906134d5565b604051602081830303815290604052915060e01b6020820180517bffffffffffffffffffffffffffffffffffffffffffffffffffffffff838183161783525050505061215b565b50505050565b6000600580549050905060056040518060a001604052808381526020018681526020018581526020018481526020016001151581525090806001815401808255809150506001900390600052602060002090600502016000909190919091506000820151816000015560208201518160010190816120d99190612dc1565b50604082015181600201556060820151816003015560808201518160040160006101000a81548160ff02191690831515021790555050507f4a0e58f74fc8e26cf81fc46228c45b0a7edf3ba161573887bfd928e11b90975e818585856040516121459493929190612e93565b60405180910390a150505050565b600033905090565b600080602060008451602086016000885af18061217e576040513d6000823e3d81fd5b3d9250600051915050600082146121995760018114156121b5565b60008473ffffffffffffffffffffffffffffffffffffffff163b145b156121f757836040517f5274afe70000000000000000000000000000000000000000000000000000000081526004016121ee9190612847565b60405180910390fd5b50505050565b6000604051905090565b600080fd5b600080fd5b6000819050919050565b61222481612211565b811461222f57600080fd5b50565b6000813590506122418161221b565b92915050565b600080fd5b600080fd5b6000601f19601f8301169050919050565b7f4e487b7100000000000000000000000000000000000000000000000000000000600052604160045260246000fd5b61229a82612251565b810181811067ffffffffffffffff821117156122b9576122b8612262565b5b80604052505050565b60006122cc6121fd565b90506122d88282612291565b919050565b600067ffffffffffffffff8211156122f8576122f7612262565b5b61230182612251565b9050602081019050919050565b82818337600083830152505050565b600061233061232b846122dd565b6122c2565b90508281526020810184848401111561234c5761234b61224c565b5b61235784828561230e565b509392505050565b600082601f83011261237457612373612247565b5b813561238484826020860161231d565b91505092915050565b600080600080608085870312156123a7576123a6612207565b5b60006123b587828801612232565b945050602085013567ffffffffffffffff8111156123d6576123d561220c565b5b6123e28782880161235f565b93505060406123f387828801612232565b925050606061240487828801612232565b91505092959194509250565b60006020828403121561242657612425612207565b5b600061243484828501612232565b91505092915050565b60008115159050919050565b6124528161243d565b82525050565b600060208201905061246d6000830184612449565b92915050565b61247c81612211565b82525050565b600081519050919050565b600082825260208201905092915050565b60005b838110156124bc5780820151818401526020810190506124a1565b60008484015250505050565b60006124d382612482565b6124dd818561248d565b93506124ed81856020860161249e565b6124f681612251565b840191505092915050565b600060a0820190506125166000830188612473565b818103602083015261252881876124c8565b90506125376040830186612473565b6125446060830185612473565b6125516080830184612449565b9695505050505050565b600073ffffffffffffffffffffffffffffffffffffffff82169050919050565b6000819050919050565b60006125a061259b6125968461255b565b61257b565b61255b565b9050919050565b60006125b282612585565b9050919050565b60006125c4826125a7565b9050919050565b6125d4816125b9565b82525050565b60006020820190506125ef60008301846125cb565b92915050565b6000806040838503121561260c5761260b612207565b5b600061261a85828601612232565b925050602061262b85828601612232565b9150509250929050565b600060208201905061264a6000830184612473565b92915050565b600061265b8261255b565b9050919050565b61266b81612650565b811461267657600080fd5b50565b60008135905061268881612662565b92915050565b6000602082840312156126a4576126a3612207565b5b60006126b284828501612679565b91505092915050565b600081519050919050565b600082825260208201905092915050565b6000819050602082019050919050565b6126f081612211565b82525050565b6126ff8161243d565b82525050565b60e08201600082015161271b60008501826126e7565b50602082015161272e60208501826126e7565b50604082015161274160408501826126e7565b50606082015161275460608501826126e7565b50608082015161276760808501826126e7565b5060a082015161277a60a08501826126e7565b5060c082015161278d60c08501826126f6565b50505050565b600061279f8383612705565b60e08301905092915050565b6000602082019050919050565b60006127c3826126bb565b6127cd81856126c6565b93506127d8836126d7565b8060005b838110156128095781516127f08882612793565b97506127fb836127ab565b9250506001810190506127dc565b5085935050505092915050565b6000602082019050818103600083015261283081846127b8565b905092915050565b61284181612650565b82525050565b600060208201905061285c6000830184612838565b92915050565b60008060006060848603121561287b5761287a612207565b5b600084013567ffffffffffffffff8111156128995761289861220c565b5b6128a58682870161235f565b93505060206128b686828701612232565b92505060406128c786828701612232565b9150509250925092565b600080604083850312156128e8576128e7612207565b5b60006128f685828601612679565b925050602061290785828601612232565b9150509250929050565b600060e082019050612926600083018a612473565b6129336020830189612473565b6129406040830188612473565b61294d6060830187612473565b61295a6080830186612473565b61296760a0830185612473565b61297460c0830184612449565b98975050505050505050565b600081519050919050565b600082825260208201905092915050565b6000819050602082019050919050565b600082825260208201905092915050565b60006129c882612482565b6129d281856129ac565b93506129e281856020860161249e565b6129eb81612251565b840191505092915050565b600060a083016000830151612a0e60008601826126e7565b5060208301518482036020860152612a2682826129bd565b9150506040830151612a3b60408601826126e7565b506060830151612a4e60608601826126e7565b506080830151612a6160808601826126f6565b508091505092915050565b6000612a7883836129f6565b905092915050565b6000602082019050919050565b6000612a9882612980565b612aa2818561298b565b935083602082028501612ab48561299c565b8060005b85811015612af05784840389528151612ad18582612a6c565b9450612adc83612a80565b925060208a01995050600181019050612ab8565b50829750879550505050505092915050565b60006020820190508181036000830152612b1c8184612a8d565b905092915050565b7f496e76616c6964206f7074696f6e204944000000000000000000000000000000600082015250565b6000612b5a60118361248d565b9150612b6582612b24565b602082019050919050565b60006020820190508181036000830152612b8981612b4d565b9050919050565b7f4e487b7100000000000000000000000000000000000000000000000000000000600052603260045260246000fd5b7f4e487b7100000000000000000000000000000000000000000000000000000000600052602260045260246000fd5b60006002820490506001821680612c0657607f821691505b602082108103612c1957612c18612bbf565b5b50919050565b60008190508160005260206000209050919050565b60006020601f8301049050919050565b600082821b905092915050565b600060088302612c817fffffffffffffffffffffffffffffffffffffffffffffffffffffffffffffffff82612c44565b612c8b8683612c44565b95508019841693508086168417925050509392505050565b6000612cbe612cb9612cb484612211565b61257b565b612211565b9050919050565b6000819050919050565b612cd883612ca3565b612cec612ce482612cc5565b848454612c51565b825550505050565b600090565b612d01612cf4565b612d0c818484612ccf565b505050565b5b81811015612d3057612d25600082612cf9565b600181019050612d12565b5050565b601f821115612d7557612d4681612c1f565b612d4f84612c34565b81016020851015612d5e578190505b612d72612d6a85612c34565b830182612d11565b50505b505050565b600082821c905092915050565b6000612d9860001984600802612d7a565b1980831691505092915050565b6000612db18383612d87565b9150826002028217905092915050565b612dca82612482565b67ffffffffffffffff811115612de357612de2612262565b5b612ded8254612bee565b612df8828285612d34565b600060209050601f831160018114612e2b5760008415612e19578287015190505b612e238582612da5565b865550612e8b565b601f198416612e3986612c1f565b60005b82811015612e6157848901518255600182019150602085019450602081019050612e3c565b86831015612e7e5784890151612e7a601f891682612d87565b8355505b6001600288020188555050505b505050505050565b6000608082019050612ea86000830187612473565b8181036020830152612eba81866124c8565b9050612ec96040830185612473565b612ed66060830184612473565b95945050505050565b7f496e76616c6964207374616b6520494400000000000000000000000000000000600082015250565b6000612f1560108361248d565b9150612f2082612edf565b602082019050919050565b60006020820190508181036000830152612f4481612f08565b9050919050565b7f4e6f207265776172647320746f20636c61696d00000000000000000000000000600082015250565b6000612f8160138361248d565b9150612f8c82612f4b565b602082019050919050565b60006020820190508181036000830152612fb081612f74565b9050919050565b600081519050612fc68161221b565b92915050565b600060208284031215612fe257612fe1612207565b5b6000612ff084828501612fb7565b91505092915050565b7f496e73756666696369656e74207265776172647320696e20636f6e7472616374600082015250565b600061302f60208361248d565b915061303a82612ff9565b602082019050919050565b6000602082019050818103600083015261305e81613022565b9050919050565b600060408201905061307a6000830185612473565b6130876020830184612473565b9392505050565b7f5374616b6520616c72656164792077697468647261776e000000000000000000600082015250565b60006130c460178361248d565b91506130cf8261308e565b602082019050919050565b600060208201905081810360008301526130f3816130b7565b9050919050565b7f4c6f636b20706572696f64206e6f7420656e6465640000000000000000000000600082015250565b600061313060158361248d565b915061313b826130fa565b602082019050919050565b6000602082019050818103600083015261315f81613123565b9050919050565b7f4e487b7100000000000000000000000000000000000000000000000000000000600052601160045260246000fd5b60006131a082612211565b91506131ab83612211565b92508282039050818111156131c3576131c2613166565b5b92915050565b7f4f7074696f6e20616c7265616479206465616374697661746564000000000000600082015250565b60006131ff601a8361248d565b915061320a826131c9565b602082019050919050565b6000602082019050818103600083015261322e816131f2565b9050919050565b7f416d6f756e742062656c6f77206d696e696d756d207374616b65000000000000600082015250565b600061326b601a8361248d565b915061327682613235565b602082019050919050565b6000602082019050818103600083015261329a8161325e565b9050919050565b7f5374616b696e67206f7074696f6e206e6f742061637469766500000000000000600082015250565b60006132d760198361248d565b91506132e2826132a1565b602082019050919050565b60006020820190508181036000830152613306816132ca565b9050919050565b600061331882612211565b915061332383612211565b925082820261333181612211565b9150828204841483151761334857613347613166565b5b5092915050565b600061335a82612211565b915061336583612211565b925082820190508082111561337d5761337c613166565b5b92915050565b60006060820190506133986000830186612473565b6133a56020830185612473565b6133b26040830184612473565b949350505050565b7f43616e6e6f74207265636f766572207374616b696e6720746f6b656e7320776960008201527f746820616374697665207374616b657300000000000000000000000000000000602082015250565b600061341660308361248d565b9150613421826133ba565b604082019050919050565b6000602082019050818103600083015261344581613409565b9050919050565b7f4e487b7100000000000000000000000000000000000000000000000000000000600052601260045260246000fd5b600061348682612211565b915061349183612211565b9250826134a1576134a061344c565b5b828204905092915050565b60006040820190506134c16000830185612838565b6134ce6020830184612473565b9392505050565b60006060820190506134ea6000830186612838565b6134f76020830185612838565b6135046040830184612473565b94935050505056fea26469706673582212201afe3e4b4668664840568639c839c8ae7505115bb6b647cf5d0844d4bb6917dc64736f6c634300081c0033",
  "linkReferences": {},
  "deployedLinkReferences": {}
}