{
  "_format": "hh-sol-artifact-1",
  "contractName": "Vault",
  "sourceName": "contracts/Vault.sol",
  "abi": [
    {
      "inputs": [
        {
          "internalType": "address",
          "name": "_stakingToken",
          "type": "address"
        },
        {
          "internalType": "address",
          "name": "_rewardsToken",
          "type": "address"
        }
      ],
      "stateMutability": "nonpayable",
      "type": "constructor"
    },
    {
      "inputs": [
        {
          "internalType": "address",
          "name": "owner",
          "type": "address"
        }
      ],
      "name": "OwnableInvalidOwner",
      "type": "error"
    },
    {
      "inputs": [
        {
          "internalType": "address",
          "name": "account",
          "type": "address"
        }
      ],
      "name": "OwnableUnauthorizedAccount",
      "type": "error"
    },
    {
      "inputs": [],
      "name": "ReentrancyGuardReentrantCall",
      "type": "error"
    },
    {
      "inputs": [
        {
          "internalType": "address",
          "name": "token",
          "type": "address"
        }
      ],
      "name": "SafeERC20FailedOperation",
      "type": "error"
    },
    {
      "anonymous": false,
      "inputs": [
        {
          "indexed": false,
          "internalType": "uint256",
          "name": "newMinimum",
          "type": "uint256"
        }
      ],
      "name": "MinimumStakeUpdated",
      "type": "event"
    },
    {
      "anonymous": false,
      "inputs": [
        {
          "indexed": true,
          "internalType": "address",
          "name": "previousOwner",
          "type": "address"
        },
        {
          "indexed": true,
          "internalType": "address",
          "name": "newOwner",
          "type": "address"
        }
      ],
      "name": "OwnershipTransferred",
      "type": "event"
    },
    {
      "anonymous": false,
      "inputs": [
        {
          "indexed": true,
          "internalType": "address",
          "name": "user",
          "type": "address"
        },
        {
          "indexed": false,
          "internalType": "uint256",
          "name": "amount",
          "type": "uint256"
        },
        {
          "indexed": false,
          "internalType": "uint256",
          "name": "stakeId",
          "type": "uint256"
        }
      ],
      "name": "RewardsClaimed",
      "type": "event"
    },
    {
      "anonymous": false,
      "inputs": [
        {
          "indexed": false,
          "internalType": "bool",
          "name": "isPaused",
          "type": "bool"
        }
      ],
      "name": "RewardsPaused",
      "type": "event"
    },
    {
      "anonymous": false,
      "inputs": [
        {
          "indexed": true,
          "internalType": "address",
          "name": "user",
          "type": "address"
        },
        {
          "indexed": false,
          "internalType": "uint256",
          "name": "amount",
          "type": "uint256"
        },
        {
          "indexed": false,
          "internalType": "uint256",
          "name": "lockPeriodInDays",
          "type": "uint256"
        },
        {
          "indexed": false,
          "internalType": "uint256",
          "name": "stakeId",
          "type": "uint256"
        }
      ],
      "name": "Staked",
      "type": "event"
    },
    {
      "anonymous": false,
      "inputs": [
        {
          "indexed": false,
          "internalType": "uint256",
          "name": "id",
          "type": "uint256"
        },
        {
          "indexed": false,
          "internalType": "string",
          "name": "name",
          "type": "string"
        },
        {
          "indexed": false,
          "internalType": "uint256",
          "name": "lockPeriodInDays",
          "type": "uint256"
        },
        {
          "indexed": false,
          "internalType": "uint256",
          "name": "rewardRate",
          "type": "uint256"
        }
      ],
      "name": "StakingOptionAdded",
      "type": "event"
    },
    {
      "anonymous": false,
      "inputs": [
        {
          "indexed": false,
          "internalType": "uint256",
          "name": "id",
          "type": "uint256"
        }
      ],
      "name": "StakingOptionDeactivated",
      "type": "event"
    },
    {
      "anonymous": false,
      "inputs": [
        {
          "indexed": false,
          "internalType": "uint256",
          "name": "id",
          "type": "uint256"
        },
        {
          "indexed": false,
          "internalType": "string",
          "name": "name",
          "type": "string"
        },
        {
          "indexed": false,
          "internalType": "uint256",
          "name": "lockPeriodInDays",
          "type": "uint256"
        },
        {
          "indexed": false,
          "internalType": "uint256",
          "name": "rewardRate",
          "type": "uint256"
        }
      ],
      "name": "StakingOptionUpdated",
      "type": "event"
    },
    {
      "anonymous": false,
      "inputs": [
        {
          "indexed": true,
          "internalType": "address",
          "name": "user",
          "type": "address"
        },
        {
          "indexed": false,
          "internalType": "uint256",
          "name": "amount",
          "type": "uint256"
        },
        {
          "indexed": false,
          "internalType": "uint256",
          "name": "stakeId",
          "type": "uint256"
        }
      ],
      "name": "Unstaked",
      "type": "event"
    },
    {
      "inputs": [
        {
          "internalType": "uint256",
          "name": "_amount",
          "type": "uint256"
        }
      ],
      "name": "addRewards",
      "outputs": [],
      "stateMutability": "nonpayable",
      "type": "function"
    },
    {
      "inputs": [
        {
          "internalType": "string",
          "name": "_name",
          "type": "string"
        },
        {
          "internalType": "uint256",
          "name": "_lockPeriodInDays",
          "type": "uint256"
        },
        {
          "internalType": "uint256",
          "name": "_rewardRate",
          "type": "uint256"
        }
      ],
      "name": "addStakingOption",
      "outputs": [],
      "stateMutability": "nonpayable",
      "type": "function"
    },
    {
      "inputs": [
        {
          "internalType": "address",
          "name": "_user",
          "type": "address"
        },
        {
          "internalType": "uint256",
          "name": "_stakeId",
          "type": "uint256"
        }
      ],
      "name": "calculateRewards",
      "outputs": [
        {
          "internalType": "uint256",
          "name": "",
          "type": "uint256"
        }
      ],
      "stateMutability": "view",
      "type": "function"
    },
    {
      "inputs": [],
      "name": "checkAndUpdateRewardStatus",
      "outputs": [],
      "stateMutability": "nonpayable",
      "type": "function"
    },
    {
      "inputs": [
        {
          "internalType": "uint256",
          "name": "_stakeId",
          "type": "uint256"
        }
      ],
      "name": "claimRewards",
      "outputs": [],
      "stateMutability": "nonpayable",
      "type": "function"
    },
    {
      "inputs": [
        {
          "internalType": "uint256",
          "name": "_optionId",
          "type": "uint256"
        }
      ],
      "name": "deactivateStakingOption",
      "outputs": [],
      "stateMutability": "nonpayable",
      "type": "function"
    },
    {
      "inputs": [
        {
          "internalType": "uint256",
          "name": "_optionId",
          "type": "uint256"
        }
      ],
      "name": "getAPY",
      "outputs": [
        {
          "internalType": "uint256",
          "name": "",
          "type": "uint256"
        }
      ],
      "stateMutability": "view",
      "type": "function"
    },
    {
      "inputs": [],
      "name": "getStakingOptions",
      "outputs": [
        {
          "components": [
            {
              "internalType": "uint256",
              "name": "id",
              "type": "uint256"
            },
            {
              "internalType": "string",
              "name": "name",
              "type": "string"
            },
            {
              "internalType": "uint256",
              "name": "lockPeriodInDays",
              "type": "uint256"
            },
            {
              "internalType": "uint256",
              "name": "rewardRate",
              "type": "uint256"
            },
            {
              "internalType": "bool",
              "name": "active",
              "type": "bool"
            }
          ],
          "internalType": "struct Vault.StakingOption[]",
          "name": "",
          "type": "tuple[]"
        }
      ],
      "stateMutability": "view",
      "type": "function"
    },
    {
      "inputs": [
        {
          "internalType": "address",
          "name": "_user",
          "type": "address"
        }
      ],
      "name": "getUserStakes",
      "outputs": [
        {
          "components": [
            {
              "internalType": "uint256",
              "name": "amount",
              "type": "uint256"
            },
            {
              "internalType": "uint256",
              "name": "startTime",
              "type": "uint256"
            },
            {
              "internalType": "uint256",
              "name": "lockPeriodInDays",
              "type": "uint256"
            },
            {
              "internalType": "uint256",
              "name": "lockEndTime",
              "type": "uint256"
            },
            {
              "internalType": "uint256",
              "name": "rewardRate",
              "type": "uint256"
            },
            {
              "internalType": "uint256",
              "name": "lastClaimTime",
              "type": "uint256"
            },
            {
              "internalType": "bool",
              "name": "active",
              "type": "bool"
            }
          ],
          "internalType": "struct Vault.Stake[]",
          "name": "",
          "type": "tuple[]"
        }
      ],
      "stateMutability": "view",
      "type": "function"
    },
    {
      "inputs": [],
      "name": "minimumStake",
      "outputs": [
        {
          "internalType": "uint256",
          "name": "",
          "type": "uint256"
        }
      ],
      "stateMutability": "view",
      "type": "function"
    },
    {
      "inputs": [],
      "name": "owner",
      "outputs": [
        {
          "internalType": "address",
          "name": "",
          "type": "address"
        }
      ],
      "stateMutability": "view",
      "type": "function"
    },
    {
      "inputs": [
        {
          "internalType": "address",
          "name": "_token",
          "type": "address"
        }
      ],
      "name": "recoverToken",
      "outputs": [],
      "stateMutability": "nonpayable",
      "type": "function"
    },
    {
      "inputs": [],
      "name": "renounceOwnership",
      "outputs": [],
      "stateMutability": "nonpayable",
      "type": "function"
    },
    {
      "inputs": [],
      "name": "rewardsPaused",
      "outputs": [
        {
          "internalType": "bool",
          "name": "",
          "type": "bool"
        }
      ],
      "stateMutability": "view",
      "type": "function"
    },
    {
      "inputs": [],
      "name": "rewardsToken",
      "outputs": [
        {
          "internalType": "contract IERC20",
          "name": "",
          "type": "address"
        }
      ],
      "stateMutability": "view",
      "type": "function"
    },
    {
      "inputs": [
        {
          "internalType": "uint256",
          "name": "_newMinimum",
          "type": "uint256"
        }
      ],
      "name": "setMinimumStake",
      "outputs": [],
      "stateMutability": "nonpayable",
      "type": "function"
    },
    {
      "inputs": [
        {
          "internalType": "uint256",
          "name": "_amount",
          "type": "uint256"
        },
        {
          "internalType": "uint256",
          "name": "_optionId",
          "type": "uint256"
        }
      ],
      "name": "stake",
      "outputs": [],
      "stateMutability": "nonpayable",
      "type": "function"
    },
    {
      "inputs": [
        {
          "internalType": "uint256",
          "name": "",
          "type": "uint256"
        }
      ],
      "name": "stakingOptions",
      "outputs": [
        {
          "internalType": "uint256",
          "name": "id",
          "type": "uint256"
        },
        {
          "internalType": "string",
          "name": "name",
          "type": "string"
        },
        {
          "internalType": "uint256",
          "name": "lockPeriodInDays",
          "type": "uint256"
        },
        {
          "internalType": "uint256",
          "name": "rewardRate",
          "type": "uint256"
        },
        {
          "internalType": "bool",
          "name": "active",
          "type": "bool"
        }
      ],
      "stateMutability": "view",
      "type": "function"
    },
    {
      "inputs": [],
      "name": "stakingToken",
      "outputs": [
        {
          "internalType": "contract IERC20",
          "name": "",
          "type": "address"
        }
      ],
      "stateMutability": "view",
      "type": "function"
    },
    {
      "inputs": [],
      "name": "totalStaked",
      "outputs": [
        {
          "internalType": "uint256",
          "name": "",
          "type": "uint256"
        }
      ],
      "stateMutability": "view",
      "type": "function"
    },
    {
      "inputs": [
        {
          "internalType": "address",
          "name": "newOwner",
          "type": "address"
        }
      ],
      "name": "transferOwnership",
      "outputs": [],
      "stateMutability": "nonpayable",
      "type": "function"
    },
    {
      "inputs": [
        {
          "internalType": "uint256",
          "name": "_stakeId",
          "type": "uint256"
        }
      ],
      "name": "unstake",
      "outputs": [],
      "stateMutability": "nonpayable",
      "type": "function"
    },
    {
      "inputs": [
        {
          "internalType": "uint256",
          "name": "_optionId",
          "type": "uint256"
        },
        {
          "internalType": "string",
          "name": "_name",
          "type": "string"
        },
        {
          "internalType": "uint256",
          "name": "_lockPeriodInDays",
          "type": "uint256"
        },
        {
          "internalType": "uint256",
          "name": "_rewardRate",
          "type": "uint256"
        }
      ],
      "name": "updateStakingOption",
      "outputs": [],
      "stateMutability": "nonpayable",
      "type": "function"
    },
    {
      "inputs": [
        {
          "internalType": "address",
          "name": "",
          "type": "address"
        },
        {
          "internalType": "uint256",
          "name": "",
          "type": "uint256"
        }
      ],
      "name": "userStakes",
      "outputs": [
        {
          "internalType": "uint256",
          "name": "amount",
          "type": "uint256"
        },
        {
          "internalType": "uint256",
          "name": "startTime",
          "type": "uint256"
        },
        {
          "internalType": "uint256",
          "name": "lockPeriodInDays",
          "type": "uint256"
        },
        {
          "internalType": "uint256",
          "name": "lockEndTime",
          "type": "uint256"
        },
        {
          "internalType": "uint256",
          "name": "rewardRate",
          "type": "uint256"
        },
        {
          "internalType": "uint256",
          "name": "lastClaimTime",
          "type": "uint256"
        },
        {
          "internalType": "bool",
          "name": "active",
          "type": "bool"
        }
      ],
      "stateMutability": "view",
      "type": "function"
    }
  ],
  "bytecode": "0x608060405234801561001057600080fd5b50604051613d09380380613d09833981810160405281019061003291906104a2565b33600073ffffffffffffffffffffffffffffffffffffffff168173ffffffffffffffffffffffffffffffffffffffff16036100a55760006040517f1e4fbdf700000000000000000000000000000000000000000000000000000000815260040161009c91906104f1565b60405180910390fd5b6100b48161028360201b60201c565b506001808190555081600260006101000a81548173ffffffffffffffffffffffffffffffffffffffff021916908373ffffffffffffffffffffffffffffffffffffffff16021790555080600360006101000a81548173ffffffffffffffffffffffffffffffffffffffff021916908373ffffffffffffffffffffffffffffffffffffffff160217905550670de0b6b3a76400006007819055506101986040518060400160405280600881526020017f466c657869626c65000000000000000000000000000000000000000000000000815250600063d09dc30061034760201b60201c565b6101e46040518060400160405280600c81526020017f33302044617973204c6f636b0000000000000000000000000000000000000000815250601e640147d3570061034760201b60201c565b6102306040518060400160405280600c81526020017f36302044617973204c6f636b0000000000000000000000000000000000000000815250603c6401e8c2120061034760201b60201c565b61027c6040518060400160405280600c81526020017f39302044617973204c6f636b0000000000000000000000000000000000000000815250605a6402cb41780061034760201b60201c565b505061090e565b60008060009054906101000a900473ffffffffffffffffffffffffffffffffffffffff169050816000806101000a81548173ffffffffffffffffffffffffffffffffffffffff021916908373ffffffffffffffffffffffffffffffffffffffff1602179055508173ffffffffffffffffffffffffffffffffffffffff168173ffffffffffffffffffffffffffffffffffffffff167f8be0079c531659141344cd1fd0a4f28419497f9722a3daafe3b4186f6b6457e060405160405180910390a35050565b6000600580549050905060056040518060a001604052808381526020018681526020018581526020018481526020016001151581525090806001815401808255809150506001900390600052602060002090600502016000909190919091506000820151816000015560208201518160010190816103c5919061075c565b50604082015181600201556060820151816003015560808201518160040160006101000a81548160ff02191690831515021790555050507f4a0e58f74fc8e26cf81fc46228c45b0a7edf3ba161573887bfd928e11b90975e8185858560405161043194939291906108c2565b60405180910390a150505050565b600080fd5b600073ffffffffffffffffffffffffffffffffffffffff82169050919050565b600061046f82610444565b9050919050565b61047f81610464565b811461048a57600080fd5b50565b60008151905061049c81610476565b92915050565b600080604083850312156104b9576104b861043f565b5b60006104c78582860161048d565b92505060206104d88582860161048d565b9150509250929050565b6104eb81610464565b82525050565b600060208201905061050660008301846104e2565b92915050565b600081519050919050565b7f4e487b7100000000000000000000000000000000000000000000000000000000600052604160045260246000fd5b7f4e487b7100000000000000000000000000000000000000000000000000000000600052602260045260246000fd5b6000600282049050600182168061058d57607f821691505b6020821081036105a05761059f610546565b5b50919050565b60008190508160005260206000209050919050565b60006020601f8301049050919050565b600082821b905092915050565b6000600883026106087fffffffffffffffffffffffffffffffffffffffffffffffffffffffffffffffff826105cb565b61061286836105cb565b95508019841693508086168417925050509392505050565b6000819050919050565b6000819050919050565b600061065961065461064f8461062a565b610634565b61062a565b9050919050565b6000819050919050565b6106738361063e565b61068761067f82610660565b8484546105d8565b825550505050565b600090565b61069c61068f565b6106a781848461066a565b505050565b5b818110156106cb576106c0600082610694565b6001810190506106ad565b5050565b601f821115610710576106e1816105a6565b6106ea846105bb565b810160208510156106f9578190505b61070d610705856105bb565b8301826106ac565b50505b505050565b600082821c905092915050565b600061073360001984600802610715565b1980831691505092915050565b600061074c8383610722565b9150826002028217905092915050565b6107658261050c565b67ffffffffffffffff81111561077e5761077d610517565b5b6107888254610575565b6107938282856106cf565b600060209050601f8311600181146107c657600084156107b4578287015190505b6107be8582610740565b865550610826565b601f1984166107d4866105a6565b60005b828110156107fc578489015182556001820191506020850194506020810190506107d7565b868310156108195784890151610815601f891682610722565b8355505b6001600288020188555050505b505050505050565b6108378161062a565b82525050565b600082825260208201905092915050565b60005b8381101561086c578082015181840152602081019050610851565b60008484015250505050565b6000601f19601f8301169050919050565b60006108948261050c565b61089e818561083d565b93506108ae81856020860161084e565b6108b781610878565b840191505092915050565b60006080820190506108d7600083018761082e565b81810360208301526108e98186610889565b90506108f8604083018561082e565b610905606083018461082e565b95945050505050565b6133ec8061091d6000396000f3fe608060405234801561001057600080fd5b50600436106101585760003560e01c8063842e2981116100c3578063beceed391161007c578063beceed3914610393578063d1af0c7d146103af578063ec5ffac2146103cd578063eeee849b146103eb578063efc661e41461041b578063f2fde38b1461043957610158565b8063842e2981146102a75780638da5cb5b146102d75780639be65a60146102f5578063b14ccee714610311578063b5d5b5fa1461032d578063beb8314c1461036357610158565b8063715018a611610115578063715018a61461021f57806372b016451461022957806372f702f31461023357806376b4691b146102515780637b0472f01461026d578063817b1cd21461028957610158565b806308315e741461015d5780630962ef7914610179578063233e9903146101955780632e17de78146101b1578063339a0551146101cd57806338864cac146101eb575b600080fd5b61017760048036038101906101729190612237565b610455565b005b610193600480360381019061018e91906122ba565b610532565b005b6101af60048036038101906101aa91906122ba565b6107cb565b005b6101cb60048036038101906101c691906122ba565b610814565b005b6101d5610a63565b6040516101e29190612302565b60405180910390f35b610205600480360381019061020091906122ba565b610a76565b6040516102169594939291906123ab565b60405180910390f35b610227610b51565b005b610231610b65565b005b61023b610c76565b6040516102489190612484565b60405180910390f35b61026b600480360381019061026691906122ba565b610c9c565b005b6102876004803603810190610282919061249f565b610dd5565b005b610291611224565b60405161029e91906124df565b60405180910390f35b6102c160048036038101906102bc9190612538565b61122a565b6040516102ce91906126c0565b60405180910390f35b6102df61131f565b6040516102ec91906126f1565b60405180910390f35b61030f600480360381019061030a9190612538565b611348565b005b61032b6004803603810190610326919061270c565b611551565b005b6103476004803603810190610342919061277b565b611569565b60405161035a97969594939291906127bb565b60405180910390f35b61037d6004803603810190610378919061277b565b6115d5565b60405161038a91906124df565b60405180910390f35b6103ad60048036038101906103a891906122ba565b6117b5565b005b6103b7611917565b6040516103c49190612484565b60405180910390f35b6103d561193d565b6040516103e291906124df565b60405180910390f35b610405600480360381019061040091906122ba565b611943565b60405161041291906124df565b60405180910390f35b610423611aba565b60405161043091906129ac565b60405180910390f35b610453600480360381019061044e9190612538565b611be4565b005b61045d611c6a565b60058054905084106104a4576040517f08c379a000000000000000000000000000000000000000000000000000000000815260040161049b90612a1a565b60405180910390fd5b6000600585815481106104ba576104b9612a3a565b5b90600052602060002090600502019050838160010190816104db9190612c6b565b508281600201819055508181600301819055507f2d8b8cd6eb9a2ea786042e108ea26e878a81fbeb33d29f3bfa19f99ba31b4e81858585856040516105239493929190612d3d565b60405180910390a15050505050565b61053a611cf1565b6000600460003373ffffffffffffffffffffffffffffffffffffffff1673ffffffffffffffffffffffffffffffffffffffff1681526020019081526020016000209050808054905082106105c3576040517f08c379a00000000000000000000000000000000000000000000000000000000081526004016105ba90612dd5565b60405180910390fd5b60008183815481106105d8576105d7612a3a565b5b9060005260206000209060070201905060006105f433856115d5565b905060008111610639576040517f08c379a000000000000000000000000000000000000000000000000000000000815260040161063090612e41565b60405180910390fd5b42826005018190555080600360009054906101000a900473ffffffffffffffffffffffffffffffffffffffff1673ffffffffffffffffffffffffffffffffffffffff166370a08231306040518263ffffffff1660e01b815260040161069e91906126f1565b602060405180830381865afa1580156106bb573d6000803e3d6000fd5b505050506040513d601f19601f820116820180604052508101906106df9190612e76565b1015610720576040517f08c379a000000000000000000000000000000000000000000000000000000000815260040161071790612eef565b60405180910390fd5b61076d3382600360009054906101000a900473ffffffffffffffffffffffffffffffffffffffff1673ffffffffffffffffffffffffffffffffffffffff16611d379092919063ffffffff16565b3373ffffffffffffffffffffffffffffffffffffffff167fdacbdde355ba930696a362ea6738feb9f8bd52dfb3d81947558fd3217e23e32582866040516107b5929190612f0f565b60405180910390a25050506107c8611db6565b50565b6107d3611c6a565b806007819055507ff4045d7dd317de89564c3f12c35961242ed2a4dce3ae4e7a75847ffa04bb08348160405161080991906124df565b60405180910390a150565b61081c611cf1565b6000600460003373ffffffffffffffffffffffffffffffffffffffff1673ffffffffffffffffffffffffffffffffffffffff1681526020019081526020016000209050808054905082106108a5576040517f08c379a000000000000000000000000000000000000000000000000000000000815260040161089c90612dd5565b60405180910390fd5b60008183815481106108ba576108b9612a3a565b5b906000526020600020906007020190508060060160009054906101000a900460ff1661091b576040517f08c379a000000000000000000000000000000000000000000000000000000000815260040161091290612f84565b60405180910390fd5b60008160030154111561097057806003015442101561096f576040517f08c379a000000000000000000000000000000000000000000000000000000000815260040161096690612ff0565b60405180910390fd5b5b60008160000154905060008260060160006101000a81548160ff02191690831515021790555080600660008282546109a8919061303f565b925050819055506109fc3382600260009054906101000a900473ffffffffffffffffffffffffffffffffffffffff1673ffffffffffffffffffffffffffffffffffffffff16611d379092919063ffffffff16565b3373ffffffffffffffffffffffffffffffffffffffff167f7fc4727e062e336010f2c282598ef5f14facb3de68cf8195c2f23e1454b2b74e8286604051610a44929190612f0f565b60405180910390a2610a5584610532565b505050610a60611db6565b50565b600860009054906101000a900460ff1681565b60058181548110610a8657600080fd5b9060005260206000209060050201600091509050806000015490806001018054610aaf90612a98565b80601f0160208091040260200160405190810160405280929190818152602001828054610adb90612a98565b8015610b285780601f10610afd57610100808354040283529160200191610b28565b820191906000526020600020905b815481529060010190602001808311610b0b57829003601f168201915b5050505050908060020154908060030154908060040160009054906101000a900460ff16905085565b610b59611c6a565b610b636000611dbf565b565b600080600360009054906101000a900473ffffffffffffffffffffffffffffffffffffffff1673ffffffffffffffffffffffffffffffffffffffff166370a08231306040518263ffffffff1660e01b8152600401610bc391906126f1565b602060405180830381865afa158015610be0573d6000803e3d6000fd5b505050506040513d601f19601f82011682018060405250810190610c049190612e76565b149050801515600860009054906101000a900460ff16151514610c735780600860006101000a81548160ff0219169083151502179055507fc83daa8e88094783a4c60aee3f0412f1c1fc10df822b51521b10a9737860949781604051610c6a9190612302565b60405180910390a15b50565b600260009054906101000a900473ffffffffffffffffffffffffffffffffffffffff1681565b610ca4611c6a565b6005805490508110610ceb576040517f08c379a0000000000000000000000000000000000000000000000000000000008152600401610ce290612a1a565b60405180910390fd5b60058181548110610cff57610cfe612a3a565b5b906000526020600020906005020160040160009054906101000a900460ff16610d5d576040517f08c379a0000000000000000000000000000000000000000000000000000000008152600401610d54906130bf565b60405180910390fd5b600060058281548110610d7357610d72612a3a565b5b906000526020600020906005020160040160006101000a81548160ff0219169083151502179055507f1d0d4a7f83ffa66b4a95f176bf32d15861de0d5edcaf818932fb08a504a38b5d81604051610dca91906124df565b60405180910390a150565b610ddd611cf1565b600754821015610e22576040517f08c379a0000000000000000000000000000000000000000000000000000000008152600401610e199061312b565b60405180910390fd5b6005805490508110610e69576040517f08c379a0000000000000000000000000000000000000000000000000000000008152600401610e6090612a1a565b60405180910390fd5b60058181548110610e7d57610e7c612a3a565b5b906000526020600020906005020160040160009054906101000a900460ff16610edb576040517f08c379a0000000000000000000000000000000000000000000000000000000008152600401610ed290613197565b60405180910390fd5b600060058281548110610ef157610ef0612a3a565b5b90600052602060002090600502016040518060a001604052908160008201548152602001600182018054610f2490612a98565b80601f0160208091040260200160405190810160405280929190818152602001828054610f5090612a98565b8015610f9d5780601f10610f7257610100808354040283529160200191610f9d565b820191906000526020600020905b815481529060010190602001808311610f8057829003601f168201915b5050505050815260200160028201548152602001600382015481526020016004820160009054906101000a900460ff1615151515815250509050611026333085600260009054906101000a900473ffffffffffffffffffffffffffffffffffffffff1673ffffffffffffffffffffffffffffffffffffffff16611e83909392919063ffffffff16565b600080826040015111156110555762015180826040015161104791906131b7565b4261105291906131f9565b90505b600460003373ffffffffffffffffffffffffffffffffffffffff1673ffffffffffffffffffffffffffffffffffffffff1681526020019081526020016000206040518060e001604052808681526020014281526020018460400151815260200183815260200184606001518152602001428152602001600115158152509080600181540180825580915050600190039060005260206000209060070201600090919091909150600082015181600001556020820151816001015560408201518160020155606082015181600301556080820151816004015560a0820151816005015560c08201518160060160006101000a81548160ff0219169083151502179055505050836006600082825461116b91906131f9565b925050819055503373ffffffffffffffffffffffffffffffffffffffff167fb4caaf29adda3eefee3ad552a8e85058589bf834c7466cae4ee58787f70589ed8584604001516001600460003373ffffffffffffffffffffffffffffffffffffffff1673ffffffffffffffffffffffffffffffffffffffff168152602001908152602001600020805490506111ff919061303f565b60405161120e9392919061322d565b60405180910390a25050611220611db6565b5050565b60065481565b6060600460008373ffffffffffffffffffffffffffffffffffffffff1673ffffffffffffffffffffffffffffffffffffffff168152602001908152602001600020805480602002602001604051908101604052809291908181526020016000905b8282101561131457838290600052602060002090600702016040518060e00160405290816000820154815260200160018201548152602001600282015481526020016003820154815260200160048201548152602001600582015481526020016006820160009054906101000a900460ff1615151515815250508152602001906001019061128b565b505050509050919050565b60008060009054906101000a900473ffffffffffffffffffffffffffffffffffffffff16905090565b611350611c6a565b600260009054906101000a900473ffffffffffffffffffffffffffffffffffffffff1673ffffffffffffffffffffffffffffffffffffffff168173ffffffffffffffffffffffffffffffffffffffff161415806113af57506000600654145b6113ee576040517f08c379a00000000000000000000000000000000000000000000000000000000081526004016113e5906132d6565b60405180910390fd5b600081905060008173ffffffffffffffffffffffffffffffffffffffff166370a08231306040518263ffffffff1660e01b815260040161142e91906126f1565b602060405180830381865afa15801561144b573d6000803e3d6000fd5b505050506040513d601f19601f8201168201806040525081019061146f9190612e76565b9050600360009054906101000a900473ffffffffffffffffffffffffffffffffffffffff1673ffffffffffffffffffffffffffffffffffffffff168373ffffffffffffffffffffffffffffffffffffffff160361151a576001600860006101000a81548160ff0219169083151502179055507fc83daa8e88094783a4c60aee3f0412f1c1fc10df822b51521b10a9737860949760016040516115119190612302565b60405180910390a15b61154c61152561131f565b828473ffffffffffffffffffffffffffffffffffffffff16611d379092919063ffffffff16565b505050565b611559611c6a565b611564838383611f05565b505050565b6004602052816000526040600020818154811061158557600080fd5b9060005260206000209060070201600091509150508060000154908060010154908060020154908060030154908060040154908060050154908060060160009054906101000a900460ff16905087565b600080600460008573ffffffffffffffffffffffffffffffffffffffff1673ffffffffffffffffffffffffffffffffffffffff168152602001908152602001600020805480602002602001604051908101604052809291908181526020016000905b828210156116c057838290600052602060002090600702016040518060e00160405290816000820154815260200160018201548152602001600282015481526020016003820154815260200160048201548152602001600582015481526020016006820160009054906101000a900460ff16151515158152505081526020019060010190611637565b50505050905080518310611709576040517f08c379a000000000000000000000000000000000000000000000000000000000815260040161170090612dd5565b60405180910390fd5b600081848151811061171e5761171d612a3a565b5b602002602001015190508060c0015161173c576000925050506117af565b600860009054906101000a900460ff161561175c576000925050506117af565b60008160a001514261176e919061303f565b905060006801b5a660ea44b80000828460800151856000015161179191906131b7565b61179b91906131b7565b6117a59190613325565b9050809450505050505b92915050565b611804333083600360009054906101000a900473ffffffffffffffffffffffffffffffffffffffff1673ffffffffffffffffffffffffffffffffffffffff16611e83909392919063ffffffff16565b600860009054906101000a900460ff1680156118bb57506000600360009054906101000a900473ffffffffffffffffffffffffffffffffffffffff1673ffffffffffffffffffffffffffffffffffffffff166370a08231306040518263ffffffff1660e01b815260040161187891906126f1565b602060405180830381865afa158015611895573d6000803e3d6000fd5b505050506040513d601f19601f820116820180604052508101906118b99190612e76565b115b15611914576000600860006101000a81548160ff0219169083151502179055507fc83daa8e88094783a4c60aee3f0412f1c1fc10df822b51521b10a97378609497600060405161190b9190612302565b60405180910390a15b50565b600360009054906101000a900473ffffffffffffffffffffffffffffffffffffffff1681565b60075481565b6000600580549050821061198c576040517f08c379a000000000000000000000000000000000000000000000000000000000815260040161198390612a1a565b60405180910390fd5b6000600583815481106119a2576119a1612a3a565b5b90600052602060002090600502016040518060a0016040529081600082015481526020016001820180546119d590612a98565b80601f0160208091040260200160405190810160405280929190818152602001828054611a0190612a98565b8015611a4e5780601f10611a2357610100808354040283529160200191611a4e565b820191906000526020600020905b815481529060010190602001808311611a3157829003601f168201915b5050505050815260200160028201548152602001600382015481526020016004820160009054906101000a900460ff161515151581525050905060006402540be4006301e133808360600151611aa491906131b7565b611aae9190613325565b90508092505050919050565b60606005805480602002602001604051908101604052809291908181526020016000905b82821015611bdb57838290600052602060002090600502016040518060a001604052908160008201548152602001600182018054611b1b90612a98565b80601f0160208091040260200160405190810160405280929190818152602001828054611b4790612a98565b8015611b945780601f10611b6957610100808354040283529160200191611b94565b820191906000526020600020905b815481529060010190602001808311611b7757829003601f168201915b5050505050815260200160028201548152602001600382015481526020016004820160009054906101000a900460ff16151515158152505081526020019060010190611ade565b50505050905090565b611bec611c6a565b600073ffffffffffffffffffffffffffffffffffffffff168173ffffffffffffffffffffffffffffffffffffffff1603611c5e5760006040517f1e4fbdf7000000000000000000000000000000000000000000000000000000008152600401611c5591906126f1565b60405180910390fd5b611c6781611dbf565b50565b611c72611ffd565b73ffffffffffffffffffffffffffffffffffffffff16611c9061131f565b73ffffffffffffffffffffffffffffffffffffffff1614611cef57611cb3611ffd565b6040517f118cdaa7000000000000000000000000000000000000000000000000000000008152600401611ce691906126f1565b60405180910390fd5b565b600260015403611d2d576040517f3ee5aeb500000000000000000000000000000000000000000000000000000000815260040160405180910390fd5b6002600181905550565b611db1838473ffffffffffffffffffffffffffffffffffffffff1663a9059cbb8585604051602401611d6a929190613356565b604051602081830303815290604052915060e01b6020820180517bffffffffffffffffffffffffffffffffffffffffffffffffffffffff8381831617835250505050612005565b505050565b60018081905550565b60008060009054906101000a900473ffffffffffffffffffffffffffffffffffffffff169050816000806101000a81548173ffffffffffffffffffffffffffffffffffffffff021916908373ffffffffffffffffffffffffffffffffffffffff1602179055508173ffffffffffffffffffffffffffffffffffffffff168173ffffffffffffffffffffffffffffffffffffffff167f8be0079c531659141344cd1fd0a4f28419497f9722a3daafe3b4186f6b6457e060405160405180910390a35050565b611eff848573ffffffffffffffffffffffffffffffffffffffff166323b872dd868686604051602401611eb89392919061337f565b604051602081830303815290604052915060e01b6020820180517bffffffffffffffffffffffffffffffffffffffffffffffffffffffff8381831617835250505050612005565b50505050565b6000600580549050905060056040518060a00160405280838152602001868152602001858152602001848152602001600115158152509080600181540180825580915050600190039060005260206000209060050201600090919091909150600082015181600001556020820151816001019081611f839190612c6b565b50604082015181600201556060820151816003015560808201518160040160006101000a81548160ff02191690831515021790555050507f4a0e58f74fc8e26cf81fc46228c45b0a7edf3ba161573887bfd928e11b90975e81858585604051611fef9493929190612d3d565b60405180910390a150505050565b600033905090565b600080602060008451602086016000885af180612028576040513d6000823e3d81fd5b3d92506000519150506000821461204357600181141561205f565b60008473ffffffffffffffffffffffffffffffffffffffff163b145b156120a157836040517f5274afe700000000000000000000000000000000000000000000000000000000815260040161209891906126f1565b60405180910390fd5b50505050565b6000604051905090565b600080fd5b600080fd5b6000819050919050565b6120ce816120bb565b81146120d957600080fd5b50565b6000813590506120eb816120c5565b92915050565b600080fd5b600080fd5b6000601f19601f8301169050919050565b7f4e487b7100000000000000000000000000000000000000000000000000000000600052604160045260246000fd5b612144826120fb565b810181811067ffffffffffffffff821117156121635761216261210c565b5b80604052505050565b60006121766120a7565b9050612182828261213b565b919050565b600067ffffffffffffffff8211156121a2576121a161210c565b5b6121ab826120fb565b9050602081019050919050565b82818337600083830152505050565b60006121da6121d584612187565b61216c565b9050828152602081018484840111156121f6576121f56120f6565b5b6122018482856121b8565b509392505050565b600082601f83011261221e5761221d6120f1565b5b813561222e8482602086016121c7565b91505092915050565b60008060008060808587031215612251576122506120b1565b5b600061225f878288016120dc565b945050602085013567ffffffffffffffff8111156122805761227f6120b6565b5b61228c87828801612209565b935050604061229d878288016120dc565b92505060606122ae878288016120dc565b91505092959194509250565b6000602082840312156122d0576122cf6120b1565b5b60006122de848285016120dc565b91505092915050565b60008115159050919050565b6122fc816122e7565b82525050565b600060208201905061231760008301846122f3565b92915050565b612326816120bb565b82525050565b600081519050919050565b600082825260208201905092915050565b60005b8381101561236657808201518184015260208101905061234b565b60008484015250505050565b600061237d8261232c565b6123878185612337565b9350612397818560208601612348565b6123a0816120fb565b840191505092915050565b600060a0820190506123c0600083018861231d565b81810360208301526123d28187612372565b90506123e1604083018661231d565b6123ee606083018561231d565b6123fb60808301846122f3565b9695505050505050565b600073ffffffffffffffffffffffffffffffffffffffff82169050919050565b6000819050919050565b600061244a61244561244084612405565b612425565b612405565b9050919050565b600061245c8261242f565b9050919050565b600061246e82612451565b9050919050565b61247e81612463565b82525050565b60006020820190506124996000830184612475565b92915050565b600080604083850312156124b6576124b56120b1565b5b60006124c4858286016120dc565b92505060206124d5858286016120dc565b9150509250929050565b60006020820190506124f4600083018461231d565b92915050565b600061250582612405565b9050919050565b612515816124fa565b811461252057600080fd5b50565b6000813590506125328161250c565b92915050565b60006020828403121561254e5761254d6120b1565b5b600061255c84828501612523565b91505092915050565b600081519050919050565b600082825260208201905092915050565b6000819050602082019050919050565b61259a816120bb565b82525050565b6125a9816122e7565b82525050565b60e0820160008201516125c56000850182612591565b5060208201516125d86020850182612591565b5060408201516125eb6040850182612591565b5060608201516125fe6060850182612591565b5060808201516126116080850182612591565b5060a082015161262460a0850182612591565b5060c082015161263760c08501826125a0565b50505050565b600061264983836125af565b60e08301905092915050565b6000602082019050919050565b600061266d82612565565b6126778185612570565b935061268283612581565b8060005b838110156126b357815161269a888261263d565b97506126a583612655565b925050600181019050612686565b5085935050505092915050565b600060208201905081810360008301526126da8184612662565b905092915050565b6126eb816124fa565b82525050565b600060208201905061270660008301846126e2565b92915050565b600080600060608486031215612725576127246120b1565b5b600084013567ffffffffffffffff811115612743576127426120b6565b5b61274f86828701612209565b9350506020612760868287016120dc565b9250506040612771868287016120dc565b9150509250925092565b60008060408385031215612792576127916120b1565b5b60006127a085828601612523565b92505060206127b1858286016120dc565b9150509250929050565b600060e0820190506127d0600083018a61231d565b6127dd602083018961231d565b6127ea604083018861231d565b6127f7606083018761231d565b612804608083018661231d565b61281160a083018561231d565b61281e60c08301846122f3565b98975050505050505050565b600081519050919050565b600082825260208201905092915050565b6000819050602082019050919050565b600082825260208201905092915050565b60006128728261232c565b61287c8185612856565b935061288c818560208601612348565b612895816120fb565b840191505092915050565b600060a0830160008301516128b86000860182612591565b50602083015184820360208601526128d08282612867565b91505060408301516128e56040860182612591565b5060608301516128f86060860182612591565b50608083015161290b60808601826125a0565b508091505092915050565b600061292283836128a0565b905092915050565b6000602082019050919050565b60006129428261282a565b61294c8185612835565b93508360208202850161295e85612846565b8060005b8581101561299a578484038952815161297b8582612916565b94506129868361292a565b925060208a01995050600181019050612962565b50829750879550505050505092915050565b600060208201905081810360008301526129c68184612937565b905092915050565b7f496e76616c6964206f7074696f6e204944000000000000000000000000000000600082015250565b6000612a04601183612337565b9150612a0f826129ce565b602082019050919050565b60006020820190508181036000830152612a33816129f7565b9050919050565b7f4e487b7100000000000000000000000000000000000000000000000000000000600052603260045260246000fd5b7f4e487b7100000000000000000000000000000000000000000000000000000000600052602260045260246000fd5b60006002820490506001821680612ab057607f821691505b602082108103612ac357612ac2612a69565b5b50919050565b60008190508160005260206000209050919050565b60006020601f8301049050919050565b600082821b905092915050565b600060088302612b2b7fffffffffffffffffffffffffffffffffffffffffffffffffffffffffffffffff82612aee565b612b358683612aee565b95508019841693508086168417925050509392505050565b6000612b68612b63612b5e846120bb565b612425565b6120bb565b9050919050565b6000819050919050565b612b8283612b4d565b612b96612b8e82612b6f565b848454612afb565b825550505050565b600090565b612bab612b9e565b612bb6818484612b79565b505050565b5b81811015612bda57612bcf600082612ba3565b600181019050612bbc565b5050565b601f821115612c1f57612bf081612ac9565b612bf984612ade565b81016020851015612c08578190505b612c1c612c1485612ade565b830182612bbb565b50505b505050565b600082821c905092915050565b6000612c4260001984600802612c24565b1980831691505092915050565b6000612c5b8383612c31565b9150826002028217905092915050565b612c748261232c565b67ffffffffffffffff811115612c8d57612c8c61210c565b5b612c978254612a98565b612ca2828285612bde565b600060209050601f831160018114612cd55760008415612cc3578287015190505b612ccd8582612c4f565b865550612d35565b601f198416612ce386612ac9565b60005b82811015612d0b57848901518255600182019150602085019450602081019050612ce6565b86831015612d285784890151612d24601f891682612c31565b8355505b6001600288020188555050505b505050505050565b6000608082019050612d52600083018761231d565b8181036020830152612d648186612372565b9050612d73604083018561231d565b612d80606083018461231d565b95945050505050565b7f496e76616c6964207374616b6520494400000000000000000000000000000000600082015250565b6000612dbf601083612337565b9150612dca82612d89565b602082019050919050565b60006020820190508181036000830152612dee81612db2565b9050919050565b7f4e6f207265776172647320746f20636c61696d00000000000000000000000000600082015250565b6000612e2b601383612337565b9150612e3682612df5565b602082019050919050565b60006020820190508181036000830152612e5a81612e1e565b9050919050565b600081519050612e70816120c5565b92915050565b600060208284031215612e8c57612e8b6120b1565b5b6000612e9a84828501612e61565b91505092915050565b7f496e73756666696369656e74207265776172647320696e20636f6e7472616374600082015250565b6000612ed9602083612337565b9150612ee482612ea3565b602082019050919050565b60006020820190508181036000830152612f0881612ecc565b9050919050565b6000604082019050612f24600083018561231d565b612f31602083018461231d565b9392505050565b7f5374616b6520616c72656164792077697468647261776e000000000000000000600082015250565b6000612f6e601783612337565b9150612f7982612f38565b602082019050919050565b60006020820190508181036000830152612f9d81612f61565b9050919050565b7f4c6f636b20706572696f64206e6f7420656e6465640000000000000000000000600082015250565b6000612fda601583612337565b9150612fe582612fa4565b602082019050919050565b6000602082019050818103600083015261300981612fcd565b9050919050565b7f4e487b7100000000000000000000000000000000000000000000000000000000600052601160045260246000fd5b600061304a826120bb565b9150613055836120bb565b925082820390508181111561306d5761306c613010565b5b92915050565b7f4f7074696f6e20616c7265616479206465616374697661746564000000000000600082015250565b60006130a9601a83612337565b91506130b482613073565b602082019050919050565b600060208201905081810360008301526130d88161309c565b9050919050565b7f416d6f756e742062656c6f77206d696e696d756d207374616b65000000000000600082015250565b6000613115601a83612337565b9150613120826130df565b602082019050919050565b6000602082019050818103600083015261314481613108565b9050919050565b7f5374616b696e67206f7074696f6e206e6f742061637469766500000000000000600082015250565b6000613181601983612337565b915061318c8261314b565b602082019050919050565b600060208201905081810360008301526131b081613174565b9050919050565b60006131c2826120bb565b91506131cd836120bb565b92508282026131db816120bb565b915082820484148315176131f2576131f1613010565b5b5092915050565b6000613204826120bb565b915061320f836120bb565b925082820190508082111561322757613226613010565b5b92915050565b6000606082019050613242600083018661231d565b61324f602083018561231d565b61325c604083018461231d565b949350505050565b7f43616e6e6f74207265636f766572207374616b696e6720746f6b656e7320776960008201527f746820616374697665207374616b657300000000000000000000000000000000602082015250565b60006132c0603083612337565b91506132cb82613264565b604082019050919050565b600060208201905081810360008301526132ef816132b3565b9050919050565b7f4e487b7100000000000000000000000000000000000000000000000000000000600052601260045260246000fd5b6000613330826120bb565b915061333b836120bb565b92508261334b5761334a6132f6565b5b828204905092915050565b600060408201905061336b60008301856126e2565b613378602083018461231d565b9392505050565b600060608201905061339460008301866126e2565b6133a160208301856126e2565b6133ae604083018461231d565b94935050505056fea26469706673582212202511a4f31ea919db75537c708e5fd3365722c8dd1dfbfa4ef49d0b504d14d98864736f6c634300081c0033",
  "linkReferences": {},
  "deployedLinkReferences": {}
}